:020000040800F2
:10000000080900209D0100080F2100088F1B00082F
:100010000D210008B90700087D2600080000000037
:10002000000000000000000000000000C7240008DD
:100030009D09000800000000C5240008F524000800
:10004000B7010008B7010008B7010008B7010008B0
:10005000B7010008B7010008B7010008B7010008A0
:10006000B7010008B7010008B7010008B701000890
:10007000B7010008B7010008B7010008B701000880
:10008000B7010008B7010008B7010008B701000870
:10009000B7010008B7010008B7010008B701000860
:1000A000B7010008A1250008B7010008B701000842
:1000B000B7010008B7010008B7010008B701000840
:1000C000B7010008B7010008B7010008B701000830
:1000D000B7010008B7010008B7010008B701000820
:1000E000B7010008B7010008B7010008B701000810
:1000F000B7010008B7010008B7010008B701000800
:10010000B7010008B7010008B7010008B7010008EF
:10011000B7010008B7010008B7010008B7010008DF
:10012000B7010008B7010008B7010008B7010008CF
:10013000B7010008B7010008B7010008B7010008BF
:10014000B7010008B7010008B7010008B7010008AF
:10015000B7010008B7010008B7010008B70100089F
:10016000B7010008B7010008B7010008B70100088F
:10017000B7010008B7010008B7010008000000003F
:10018000B7010008B7010008DFF80CD000F048FA0A
:1001900000480047C52F000808090020064880478E
:1001A00006480047FEE7FEE7FEE7FEE7FEE7FEE75C
:1001B000FEE7FEE7FEE7FEE791250008890100085B
:1001C0002DE9F05F0546002092469B46884606468C
:1001D000814640241BE0284641464746224600F01F
:1001E00057F853465A46C01A914110D31146184643
:1001F000224600F03EF82D1A67EB01084F462246D2
:100200000120002100F035F817EB00094E41201EB7
:10021000A4F10104DFDC484631462A464346BDE8E6
:10022000F09FD2B201E000F8012B491EFBD27047CB
:100230000022F6E710B513460A4604461946FFF7B2
:10024000F0FF204610BD30B50B46014600202022AD
:10025000012409E021FA02F59D4205D303FA02F5D3
:10026000491B04FA02F52844151EA2F10102F1DC33
:1002700030BD202A04DB203A00FA02F1002070474A
:100280009140C2F1200320FA03F3194390407047D4
:10029000202A04DB203A21FA02F00021704721FADB
:1002A00002F3D040C2F12002914008431946704742
:1002B0002DE9FE4F804681EA0300C00F0C460090F6
:1002C00021F0004123F00045B8EB0200A94105D21E
:1002D0004046214690461C460B46024623F000400D
:1002E000104347D0270DC7F30A00C3F30A51029009
:1002F000401A019040286BDAC3F3130040F4801BCE
:100300000098924620B10023D2EB030A63EB0B0B5B
:1003100001985946C0F140025046FFF7AAFF064631
:100320000D4650465946019A00F08CF910EB080032
:100330006141002487EA115284EAE7731A4340D0EE
:10034000009A62B3019A012A4FEA075215DC001B9A
:1003500061EB02014FF0004202EA0752CDE9004290
:10036000001C41F5801132462B4600F08CF903B099
:10037000BDE8F08F40462146F9E7001B61EB020122
:10038000001C41F5801300185B412018A2F50017EE
:1003900047EB030140EAD570B6196D4111E06D08D5
:1003A0004FEA360645EAC0754FEA0752001B61EB7B
:1003B0000201001C41F5801149084FEA3000001984
:1003C000514132462B4603B0BDE8F04F00F04CB926
:1003D0000098012240000023D0EB020263EBE0739F
:1003E000009821464FEAE074B8EB000061EB04018D
:1003F000E9E783F000435BE781F0004158E72DE92E
:10040000FE4F81EA030404F0004421F0004100940F
:100410004FF0000B23F0004350EA01045ED052EA93
:1004200003045BD0C3F30A54C1F30A552C44A4F26D
:10043000F3340194A0FB0254C1F3130141F4801181
:10044000C3F3130343F4801301FB024400FB034E88
:10045000840A970A44EA815447EA8357A4FB076851
:1004600002958D0A05FB07854FEA932C04FB0C547B
:100470002705029D4FEA065847EA1637B5EB0805EF
:100480006EEB070C870E920E47EA811742EA831241
:10049000A7FB0201B6EB0B0164EB00042B0D43EA52
:1004A0000C335E1844EB1C50DA465146E7FB020160
:1004B000C5F313044FEA0B3343EA14534FEA0432F3
:1004C000019C43EA0603A4F10C040294009CCDE9CC
:1004D00000B400F0D8F803B0BDE8F08F002001466A
:1004E000F9E72DE9F04D81EA030404F0004B21F017
:1004F000004514464FF0000A23F0004150EA05027F
:1005000020D054EA01021DD0C5F30A570246C5F3B4
:100510001303C1F31300C1F30A5640F4801543F4EA
:100520008013A7EB0608101BD64608F2FD3873EBC4
:10053000050002D308F1010801E092185B41B8F10F
:10054000000F03DA00200146BDE8F08D00204FF4D3
:100550008011064684460EE0171B73EB050705D392
:10056000121B63EB050306434CEA010C49084FEAF2
:10057000300092185B4150EA0107EDD152EA0300C6
:1005800012D082EA040083EA0501084305D0101B5B
:10059000AB4106D20122002306E000224FF00043C7
:1005A00002E06FF0010253101AEB06004CEB085109
:1005B00010EB0A0041EB0B01BDE8F04D00F054B820
:1005C000C1F30A52C1F3130140F2FF3341F4801129
:1005D0009A4202DA00200146704740F233439A42C1
:1005E000A2F2334202DC5242FFF752BEFFF741BE95
:1005F00030B5041E71F1000404DB4FF000444042AA
:1006000064EB0101141E73F1000405DB1C464FF07E
:100610000043524263EB0403994208BF904230BD4D
:10062000064C074D06E0E06840F0010394E807003F
:1006300098471034AC42F6D3FFF7AAFDE032000829
:1006400000330008202A06DBCB17203A41FA02F0DB
:1006500043EAE07306E041FA02F3D040C2F120021F
:10066000914008431946704710B5141E73F10004F9
:1006700008DA401C41F1000192185B411A4301D194
:1006800020F0010010BD2DE9F04D92469B4611B1BE
:10069000B1FA81F202E0B0FA80F220329046FFF720
:1006A000E8FD04460F4640EA0A0041EA0B015346C2
:1006B0005A46084313D0114653EA010019D0C8F135
:1006C00040025046FFF7E4FD05460E4650465946A7
:1006D0004246FFF7CEFD084305D0012004E0204646
:1006E0003946BDE8F08D0020054346EAE0762C430C
:1006F00037430A986305E40AA0EB08000022FD0ACC
:1007000044EA47540A3002D500200146E9E70105D2
:1007100010196941DDE9084500196941BDE8F04D4E
:10072000A2E700001CB50A2000F062F901208DF854
:1007300004006424034601AA46210E48009400F0F8
:100740002DFC07208DF80400012301AA4621094849
:10075000009400F023FC10208DF80400012301AA6E
:1007600046210448009400F019FCB42000F040F940
:100770001CBD0000240000201CB500200190C820F2
:100780000090022301AA4621094800F00FFB10B196
:10079000BFEE000A1CBDBDF804009FED061A40BA6A
:1007A00000EE100AF8EE400A80EE810A1CBD00003F
:1007B000240000209A99993FFEE7000000B585B01B
:1007C00014216846FFF734FD02200121CDE9021013
:1007D000CDE900016946024800F01CF905B000BDF2
:1007E000000002402DE9F04188B000270D46064682
:1007F00000970197FFF7E2FF474C002202212046B5
:1008000000F005FA142000F0F3F80122022120463E
:1008100000F0FDF91E2002F0C5FB142102A8FFF72D
:1008200007FD0220CDE902070120049002A920461D
:1008300000F0F0F805E07F1CC82F1CD8012002F062
:10084000B1FB0221204600F0DDF90128F3D000279A
:1008500005E07F1CC82F0ED8012002F0A3FB022167
:10086000204600F0CFF90028F3D00027A04609E089
:100870007F1CC82F03D9012008B0BDE8F0810120FA
:1008800002F090FB0221404600F0BCF90128EFD0B5
:1008900072B600244FEA0D0700F040F83855641C8A
:1008A000052CF9DB62B69DF800309DF801209DF81B
:1008B00002109DF803009C180F183C449DF804702A
:1008C000E4B2A74201D00220D6E700EE102AF8EEEB
:1008D000400AB2EE040A80EE801A00EE903AF8EE7A
:1008E000600A71EE200AC5ED000A00EE900AB8EE2B
:1008F000601AC1EE000A00EE101AB8EE400A30EE9F
:10090000800A86ED000AFFF759FF012202214046C6
:1009100000F07DF90020AFE7000002402DE9F0472C
:100920000025DFF874802C464FF0010AA946002606
:100930004FF4967705E0761CBE4212D8012002F0F3
:1009400031FB0221404600F05DF90028F3D01E2063
:1009500002F028FB02214746404600F053F90128E7
:1009600009D0484640EA4500641CC5B2082CDEDBCD
:100970002846BDE8F087002605E0761CC82E08D87A
:10098000012002F00FFB0221384600F03BF901285C
:10099000F3D05046E6E7000000000240704772B610
:1009A000FEE7000070B50D4600211446002802DA6B
:1009B0000121404200B20A2390FBF3F290FBF3F6D0
:1009C00003FB160092B283B211B12D2004F8010B83
:1009D00005A1204601F054FE2044002D01DB00F863
:1009E000015B0021017070BD25752E25750000008A
:1009F00070B5044600F010F90546601C02D00448AA
:100A00000078044400F008F9401BA042FAD370BDFE
:100A1000140000202DE9F84FDFF8BCA100220125C9
:100A200003264FF00F090AF1040BAAF1040E00BFD0
:100A30000B6805FA02F42340A34270D10F7907F046
:100A40000307012F01D0022F16D187684FEA420811
:100A500006FA08FC27EA0C07D1F80CC00CFA08FCCF
:100A60004CEA070CC0F808C04768A7430C79C4F3E8
:100A7000001494403C4344600C79E443A4070AD03A
:100A8000C4684FEA420C06FA0CF7BC438F6807FAB9
:100A90000CF72743C7600C7904F00304022C12D131
:100AA000D40800EB840CDCF820405707FF0E09FA4D
:100AB00007F824EA0804D1F8108008FA07F848EA91
:100AC0000408CCF8208004684FEA420C06FA0CF7C0
:100AD000BC430F7907F0030707FA0CF727430760B9
:100AE0004C6814F4403F70D03C4C276847F4804772
:100AF0002760246822F0030704F480440094384CF3
:100B000007EB040CDCF8084897074FEA177809FA56
:100B100008F7BC43334FB84202D1002724E054E029
:100B2000314FB84201D101271EE0304FB84201D108
:100B3000022719E02E4FB84201D1032714E02D4FB0
:100B4000B84201D104270FE02B4FB84201D105274D
:100B50000AE02A4FB84201D1062705E0284FB842E3
:100B600001D1072700E0082707FA08F72743CCF848
:100B70000878DAF800405746D1F804C09C435FEA91
:100B8000CC2C00D51C433C60DBF800405F46D1F81C
:100B900004C09C435FEA8C2C00D51C433C60DEF80B
:100BA00000407746D1F804C09C435FEA8C3C00D5F6
:100BB0001C433C60084F083F3C68D1F804C09C438C
:100BC0005FEACC3C00D51C433C60521C102AFFF469
:100BD0002FAFBDE8F88F0000083C014044380240C8
:100BE00000300140000002400004024000080240C2
:100BF000000C0240001002400014024000180240A5
:100C0000001C02400069084000D0012070470AB172
:100C1000816170470904FBE7014880687047000064
:100C20001400002070B5040025D094F83D00002584
:100C300020B984F83C50204600F046FA242084F87D
:100C40003D002068016821F0010101602068016811
:100C500041F4004101602068016821F40041016015
:100C600000F0E0FB4D4A6168914201D84C4900E038
:100C70004C49884201D2012070BD4B492368B0FB2A
:100C8000F1F15E6826F03F060E435E6063689342B2
:100C900006D94FF4967359434FF47A73B1FBF3F1CD
:100CA0002368491C1E6A26F03F06314319626168B9
:100CB000914210D84900401EB0FBF1F2521CC2F321
:100CC0000B02042A01D2042022E0B0FBF1F0401C08
:100CD000C0F30B001CE0A268F2B301EBC10303EB0D
:100CE0000116431EB3FBF6F35B1C43F480431B0564
:100CF00049D092B301EBC10202EB0111401EB0FBDF
:100D0000F1F0401CC0F30B0040F4804040F4004080
:100D10002168CA694CF6FF739A431043C861D4E94D
:100D2000071001432068026822F0C00211430160ED
:100D3000D4E9030101432068826848F2FF339A43F3
:100D400011438160D4E9050108432168CA6822F093
:100D5000FF021043C86001E00EE016E02068016861
:100D600041F0010101602564202084F83D002563E5
:100D700084F83E50002070BD01EB4106431EB3FBDA
:100D8000F6F35B1CB3E70120C2E701EB4101401E13
:100D9000B0FBF1F0401CC0F30B00B7E7A0860100E8
:100DA00080841E0000093D0040420F002DE9F84FED
:100DB0001F4690468A460446DDF82890FFF72CFF30
:100DC000054694F83D00202871D11923012270496D
:100DD0002046009500F0E4FF0028F5D194F83C008F
:100DE000012864D0012084F83C0020680168C9070C
:100DF00003D1016841F0010101602068016821F41C
:100E000000610160222084F83D00102084F83E003B
:100E100000262664C4F824806785608D20855D489F
:100E2000E0622B464A465146204600F0C9FE0028A3
:100E300076D1208D584F68B1012814D0022820683F
:100E4000016816D041F480610160206841698069C1
:100E500000908EE02068416981690091016841F449
:100E60000071016085E02068016821F48061016003
:100E7000F0E721F4806101602068016841F40061BD
:100E8000E2E7032846D801280AD0022810D04B46B2
:100E9000002239462046009500F082FFC8BB25E0BD
:100EA0002A464946204601F021F890BB54E06CE008
:100EB0004B46002239462046009500F071FF40BBAA
:100EC0002068016841F40071016020680069616A6E
:100ED0000870606A401C6062218D491E2185618D09
:100EE000491E618521680969017039E0206801683F
:100EF00021F48061016020680069616A0870606A9D
:100F0000401C6062208D401E2085608D401E6085E3
:100F1000CEE705E02A464946204600F0E7FF10B13B
:100F20000120BDE8F88F20680069616A0870606A76
:100F3000401C6062208D401E81B22185608D401E64
:100F4000608520684269D243520712D4032903D135
:100F5000016821F48061016020680069616A08709D
:100F6000606A401C6062208D401E2085608D401E9E
:100F70006085208D002884D1202084F83D0084F8ED
:100F80003E6084F83C600020CBE70220C9E7000007
:100F9000020010000000FFFF040001002DE9F84FDF
:100FA0001F4690468A460446DDF82890FFF734FE37
:100FB000054694F83D0020287FD11923012240499D
:100FC0002046009500F0ECFE002876D194F83C0015
:100FD000012872D0012084F83C0020680168C9070C
:100FE00003D1016841F0010101602068016821F42A
:100FF00000610160212084F83D00102084F83E004B
:1010000000262664C4F824806785608D20852D48DD
:10101000E0622B464A465146204600F047FE90B912
:10102000206841698069009036E02A46494620469A
:1010300000F094FF50B1206C042804D120680168AE
:1010400041F4007101600120BDE8F88F606A2168F9
:1010500000780861606A401C6062618D491E61858C
:10106000218D491E89B2218522685369DB435B07C4
:101070000BD451B100781061606A401C6062608DD1
:10108000401E6085208D401E20852A464946204608
:1010900000F05AFE0028CED1208D0028C5D154F88A
:1010A0003D0B016841F400710160202004F81E0925
:1010B000E67766770020C7E7FFE70220C4E7000075
:1010C000020010000000FFFF10B586B00446142196
:1010D0006846FFF7ADF813492068884220D11248CE
:1010E0000021026842F002020260006800F0020083
:1010F0000590C02000901220CDE90101032003904B
:101100000420049069460948FFF784FC0648103023
:10111000016841F400110160006800F400100590BE
:1011200006B010BD005400403038024000040240B8
:1011300002488168027811448160704714000020E1
:101140000B4810B5016841F400710160016841F479
:1011500080610160016841F480710160032000F04A
:1011600095F80F2000F006F800F04AF8002010BDB6
:10117000003C024030B505461C4887B00024016899
:1011800041F001010160006806A900F00100009033
:1011900001A800F027F900F055F915494000B0FB0F
:1011A000F1F11548134A491E026040F2E732C0E9E6
:1011B0000324C0E90114846100F084FB040012D10F
:1011C0000D4800F0FDFB04000DD1192000F030F8AF
:1011D000102D07D200222946192000F037F80748C1
:1011E000056000E0012407B0204630BD44380240CD
:1011F00040420F0000000140C00000201800002005
:101200000A4808B5016841F480410160006800F4B3
:10121000804000900548001F016841F08051016046
:10122000006800F08050009008BD00004438024083
:10123000002809DB00F01F020121914040098000D5
:1012400000F1E020C0F8001170470000F0B40E4B30
:101250001B680C46C3F30223C3F10705042D00D914
:101260000425191D072901D2002300E0DB1E0126F9
:1012700006FA05F1491E214099409E40761E16400F
:101280003143F0BC01F010BA0CED00E0064900F06B
:10129000070208684FF6FF03184040EA0220034A9D
:1012A00010430860704700000CED00E00000FA05F4
:1012B0002DE9F0470E46050065D0DFF81481D8F817
:1012C0000000F7B200F00700B04207D288F80070C3
:1012D000D8F8000000F00700B04254D128683D4C17
:1012E000810712D5400703D5206840F4E050206004
:1012F0002878000703D5206840F46040206020680B
:10130000A96820F0F000084320602878C0072DD09D
:10131000304968680839012812D0022813D0032800
:1013200011D00968890700292DDA216821F003010D
:1013300001432160FFF770FC814641F2883A0EE0DC
:1013400009688903EFE709688901ECE7FFF764FCA6
:10135000A0EB0901514502D90320BDE8F0872068C0
:10136000696800F00C00B0EB810FEFD1D8F80010E5
:10137000404601F00701B14207D90770006800F04C
:101380000700B04201D00120E7E72878400705D5E3
:101390002068E96820F4E0500843206028780007BE
:1013A00006D52068296920F4604040EAC100206029
:1013B00000F058F82168084AC1F30311515CC84095
:1013C0000649086006480068FFF7D4FE0020C4E71D
:1013D000003C024008380240C632000820000020CD
:1013E000180000200F2202600C4A136803F0030368
:1013F0004360136803F0F0038360136803F4E05361
:10140000C36012684FF4E05303EAD2020261044859
:10141000006800F0070008607047000008380240CC
:10142000003C02400448054900680968044AC1F3C9
:101430008221515CC84070472000002008380240DB
:10144000D63200080448054900680968044AC1F317
:101450004231515CC84070472000002008380240EB
:10146000D6320008154810B5006810F00C02144878
:1014700013D04110042A0FD0082A0ED10F4C241F7C
:101480002268236802F03F025B0207D52068C0F3A0
:101490008810A0FB010106E0084610BD2168C1F3D9
:1014A0008811A1FB00010023FEF78AFE2168C1F329
:1014B0000141491C4900B0FBF1F010BD0838024061
:1014C0000024F4002DE9F84F04006ED02078DFF8F6
:1014D0004C93C007A9F104054AD009F10400016842
:1014E000C1F38101012908D00068C0F381000228FE
:1014F0000AD1D9F80000400206D52868800337D504
:1015000060680028E1D033E06068B0F5803F10D01B
:10151000B0F5A02F286810D020F48030286028680B
:1015200020F4802028606068A8B1FFF775FB0646AC
:101530000DE0286840F48030F4E740F48020286013
:10154000F7E700BFFFF768FB801B642873D82868A3
:101550008003F7D50CE0FFF75FFB064605E000BF10
:10156000FFF75AFB801B6428F0D828688003F7D463
:101570002078DFF8AC8280074FF0000A3ED5A748FC
:10158000001D016811F00C0F08D00068C0F3810045
:1015900002280BD1D9F80000400207D42868800740
:1015A00016D5E068012800D112E033E1E068B8B157
:1015B0000120C8F80000FFF72FFB064605E000BF3A
:1015C000FFF72AFB801B0228C0D828688007F7D5C0
:1015D0002868216920F0F80040EAC10028600DE089
:1015E000C8F800A0FFF718FB064604E0FFF714FB5D
:1015F000801B02281FD828688007F7D420780007AE
:1016000022D5864F87486169703771B10121016029
:10161000FFF702FB064604E0FFF7FEFA801B0228F4
:1016200009D838688007F7D50EE0C0F800A0FFF7AA
:10163000F3FA064605E082E0FFF7EEFA801B022887
:101640007DD838688007F7D42078400768D5DFF860
:10165000CCB100270BF13C0BDBF80000C0000BD431
:10166000DBF8001041F08051CBF80010DBF80000EF
:10167000012700F0805000906B4E3068C00510D4F8
:10168000306840F480703060FFF7C6FA009005E0E3
:10169000FFF7C2FA0099401A022850D83068C005F6
:1016A000F6D55E4EA0686C3601280FD0052830684C
:1016B00010D020F001003060306820F0040030606D
:1016C000A068B8B1FFF7A8FA00900FE0306840F0CA
:1016D0000100F4E740F004003060F7E7FFF79CFA00
:1016E0000099411A41F28830814266D830688007FB
:1016F000F4D50EE0FFF790FA009007E0FFF78CFAC0
:101700000099411A41F28830814256D830688007EA
:10171000F4D42FB1DBF8001021F08051CBF8001089
:10172000A069C8B33D49091D0968C1F381010229B7
:101730004AD00228504607D0C8F8600000E03CE0DC
:10174000FFF76AFA04463BE04746C8F86000FFF737
:1017500063FA064605E000BFFFF75EFA801B022829
:101760002BD828688001F7D4D4E907010843A16A7F
:101770002E4A490802EB0141626A41EA821108439C
:1017800094F82C1040EA0161C9F800100120386675
:10179000FFF742FA044606E03EE000BFFFF73CFADE
:1017A000001B022809D828688001F7D534E000BF63
:1017B000FFF732FA001B022802D90320BDE8F88F98
:1017C00028688001F4D427E00128F7D0D9F8000078
:1017D000E26900F4800191421CD1226A00F03F01CD
:1017E000914217D147F6C071626A0140B1EB821F86
:1017F00010D1A26A4FF0FF3300F4403103EB5202E4
:10180000B1EB024F06D194F82C1000F07060B0EBF1
:10181000016F01D00120D1E70020CFE7043802405A
:1018200000004742800E4742007000400000FFFF6A
:101830007047704770B590F83C20012A32D00124DF
:1018400080F83C40022280F83D2003685A689D6879
:1018500022F070060A6832435A60134B02689A42BB
:1018600014D0B2F1804F11D0104B9A420ED0104BD1
:101870009A420BD00F4B9A4208D00F4B9A4205D098
:101880000E4B9A4202D00E4B9A4204D1496825F081
:1018900080031943916080F83D40002180F83C109E
:1018A000084670BD022070BD0000014000040040E9
:1018B00000080040000C00400004014000400140CE
:1018C0000018004010B5040003D094F83D0010B19A
:1018D00007E0012010BD002084F83C00204600F005
:1018E0001FF8022084F83D00211D206800F05EFEF4
:1018F000012084F8460084F83E0084F83F0084F814
:10190000400084F8410084F8420084F8430084F8E1
:10191000440084F8450084F83D00002010BD00001C
:1019200008B500680649884208D10648016841F0B8
:1019300010010160006800F01000009008BD000078
:10194000001000404038024090F83D10012901D0BD
:1019500001207047022180F83D100068114988423B
:1019600014D0B0F1804F11D00F4988420ED00F49EA
:1019700088420BD00E49884208D00E49884205D0D3
:101980000D49884202D00D49884204D1816801F096
:101990000701062903D0016841F001010160002020
:1019A00070470000000001400004004000080040B3
:1019B000000C0040000401400040014000180040BD
:1019C00090F83D10012901D001207047022180F8D4
:1019D0003D100168CA6842F00102CA6000681149FE
:1019E000884214D0B0F1804F11D00F4988420ED0F8
:1019F0000E4988420BD00E49884208D00D498842D2
:101A000005D00D49884202D00C49884204D1816832
:101A100001F00701062903D0016841F001010160CE
:101A20000020704700000140000400400008004012
:101A3000000C00400004014000400140001800403C
:101A400070472DE9F04104460068C66805694FF00B
:101A50000007A90713D5B10711D5F91E01610120AF
:101A60002077206880698007204602D0FFF7E8FFD2
:101A700004E000F07EF8204600F07CF82777680745
:101A800016D5700714D521686FF004000861022094
:101A900020772068806910F4407F204602D0FFF74D
:101AA000CFFF04E000F065F8204600F063F82777E8
:101AB000280715D5300713D521686FF00800086195
:101AC000042020772068C0698007204602D0FFF7F5
:101AD000B7FF04E000F04DF8204600F04BF8277700
:101AE000E80616D5F00614D521686FF010000861DD
:101AF000082020772068C06910F4407F204602D07B
:101B0000FFF79EFF04E000F034F8204600F032F8C2
:101B10002777E80708D0F00706D021686FF00100AA
:101B20000861204600F028F8280608D5300606D5BA
:101B300021686FF0800008612046FFF779FE680693
:101B400008D5700606D521686FF040000861204670
:101B500000F01CF8A8060AD5B00608D521686FF079
:101B6000200008612046BDE8F041FFF762BEBDE8F5
:101B7000F08170477047000000680349884201D136
:101B8000FFF7D6BA70470000000001407047FEE73B
:101B900001684A69D24352050FD46FF480624A61EA
:101BA000002140F8301F202242738173026942F005
:101BB0000402026101730120704700207047000099
:101BC0002DE9F84F0446C06A1E4693460D4621682B
:101BD0000A6842F480620A60082807D0012805D00C
:101BE00010F5803F02D0206B112804D120680168D5
:101BF00041F4807101604FF001195B4600224946B3
:101C00002046009600F0CCF84FF4007840B12068F0
:101C10000068C00501D5C4F840800320BDE8F88FF6
:101C20002069DFF884A0B0F5804F0FD0062021682E
:101C300000EAD51747F0F000086133465A460AF12A
:101C40000601204600F0F4F858BB03E0E8B240F08B
:101C500001001CE02168E8B2086133465A4651464B
:101C6000204600F0E5F8E0B92068416981690091FB
:101C7000016841F4807101605B46002249462046BC
:101C8000009600F08DF80028C1D147F0F1002168DE
:101C9000086133465A465146204600F0C9F80028EC
:101CA000BCD00120BAE7000002000100F8B50446EC
:101CB000C06A1E460D461746082807D0012805D0E1
:101CC00010F5803F02D0206B122804D120680168F3
:101CD00041F480710160134600224FF0011120464B
:101CE000009600F05DF840B120680068C00502D59C
:101CF0004FF4007020640320F8BD2069B0F5804FD8
:101D00000ED00620216800EAD51040F0F0000861EE
:101D100033463A460B49204600F08AF878B902E08B
:101D200005F0FE0000E0E8B221680861054933468D
:101D30003A46891F204600F07BF80028DCD00120BD
:101D4000F8BD00000800010070B516460D460446B7
:101D50001EE02046FFF71CFF08B1012070BD681C83
:101D600016D0FEF759FF801BA84200D885B920681D
:101D70004069C04340070BD5002044F8300F2021B4
:101D80006173A073216941F0200121612073E4E7B0
:101D900020684069C0434007DBD4002070BD0000CC
:101DA0002DE9F047984617460D460446C1F307460D
:101DB000DDF820902AE000BFB8F1FF3F26D0FEF703
:101DC0002BFFA0EB0901414502D8B8F1000F1DD14E
:101DD0002068012E16D0806925EA00000004000C5E
:101DE00012D00020B84211D1002044F8300F202139
:101DF0006173A073216941F02001216120730120EA
:101E0000BDE8F0874069E7E70120EBE72068012E95
:101E10000AD0806925EA00000004000C06D00020EA
:101E2000B842C9D00020EBE74069F3E70120F7E7AB
:101E30002DE9F047984616460D4604464FF0000936
:101E40004FF0200AC1F3074723E020684069C043F0
:101E5000400515D42068016841F4007101602168D3
:101E60006FF480604861C4F8309084F83DA084F835
:101E70003E90216C41F00401216484F83C9021E003
:101E8000701C06D0FEF7C8FEA0EB0800B04203D8D5
:101E900016B1012F1FD021E02068012F15D08069D5
:101EA00025EA00000004000C18D000BF44F8309F61
:101EB00084F80DA084F80E90216941F02001216181
:101EC00084F80C900120BDE8F087406925EA000005
:101ED0000004000CEAD12068406901E020688069B4
:101EE00025EA00000004000CAFD1ECE72DE9F04139
:101EF000002590460E460446202728E04069C0434E
:101F0000C0060CD454F8301B6FF01000486144F840
:101F100010596777A577206A2062257714E0FEF7CD
:101F20007BFEA0EB0800B04200D886B9206840696B
:101F3000C04340060BD544F8305F6773A573206932
:101F400040F02000206125730120BDE8F081206869
:101F50004169C9434906D1D40020F6E770B5164659
:101F60000D4604461EE02046FFF712FE08B1012090
:101F700070BD681C16D0FEF74FFE801BA84200D82B
:101F800085B920684069C04300060BD5002044F89D
:101F9000300F20216173A073216941F0200121617C
:101FA0002073E4E720684069C0430006DBD40020CA
:101FB00070BD000010B5FEF72FFE044610210B483F
:101FC000FEF720FE0A49CA786AB901280BD10A69CE
:101FD000A21A642A07D90C614A78521C02F0030243
:101FE0004A7001228A70C87010BD000000100240C3
:101FF0000000002030B587B014216846FEF718F9BC
:102000001D480024016841F010010160016801F0E1
:1020100010010591016841F080010160016801F043
:1020200080010591016841F001010160016801F042
:1020300001010591016841F00201016000680F4D46
:1020400000F002000590012202212846FEF7DFFD84
:102050001020CDE900040124694609480294FEF7E6
:10206000D9FC0221CDE90014CDE902416946284698
:10207000FEF7D0FC07B030BD30380240000002400F
:10208000001002400D4810B50B4901600C49416039
:1020900000214FF480428160C0E9031241618161F7
:1020A000C1610162FEF7BEFD002803D0BDE810400B
:1020B000FEF775BC10BD0000005400402400002055
:1020C000A08601001CB500240F4800940D4901941E
:1020D0000160A721C0E901144FF6FF718461C1605E
:1020E000FFF7F0FB08B1FEF75AFC0094694606487A
:1020F0000194FFF79FFB08B1FEF751FC0248FFF780
:1021000023FC1CBD0010004078000020FEE7FEE725
:102110004FF480610148FEF78BB8000008010020F1
:1021200010B56420FEF764FCAE2000F0A7F9202073
:1021300000F0A4F9002000F0A1F9B02000F09EF911
:10214000C82000F09BF9002000F098F9102000F062
:1021500095F9402000F092F9812000F08FF9FF20DE
:1021600000F08CF9A12000F089F9A62000F086F992
:10217000A82000F083F93F2000F080F9A42000F0AF
:102180007DF9D32000F07AF9002000F077F9D5200E
:1021900000F074F9802000F071F9D92000F06EF998
:1021A000F12000F06BF9DA2000F068F9122000F05D
:1021B00065F9DB2000F062F9402000F05FF98D2026
:1021C00000F05CF9142000F059F9BDE81040AF2090
:1021D00000F054B970B50E4E002400BF04F1B000F9
:1021E000C0B200F04BF9002000F048F9102000F0D8
:1021F00045F9002505EBC410305C00F04FF96D1C6B
:10220000EDB2802DF6D3641CE4B2082CE6D370BD89
:102210000801002030B57A2818D8072916D8A2F16D
:1022200020035F2B00D32022094C00EBC11002EBEE
:1022300042020849002304EB4202D418C5185B1C73
:1022400014F8C04CDBB24C55062BF6D330BD000061
:102250008C3000080801002070B515460E46044673
:102260000BE07A2C02D90024761CF6B231462046C7
:10227000FFF7D0FFA41DE4B26D1C2A78002AF0D12C
:1022800070BD000010B52DED028B84B0FFF740FF4C
:102290005C4CB2EE048A607830B1012858D0022834
:1022A0006BD003287DD183E0207860B3002156A253
:1022B0000846FFF7D1FF94ED010A6A46432120EE5C
:1022C000080ABDEEC00A10EE100A00B2FEF76AFB63
:1022D0006A4600212420FFF7BFFF4DA20321002002
:1022E000FFF7BAFF94ED020A6A46252120EE080A9C
:1022F000BDEEC00A10EE100A00B2FEF753FB032138
:102300006A46242007E0002143A20846FFF7A4FF05
:1023100045A203210020FFF79FFF47A206210020CE
:10232000FFF79AFF94ED030AB5EEC00AF1EE10FA3A
:102330000ADBBCEEC00A42A110EE100A82B2684667
:1023400000F09EF96A4600E03EA20621242050E0FB
:10235000207880B13CA200211420FFF77DFF94ED8E
:10236000010A6A46432120EE080ABDEEC00A10EEBB
:10237000100A00B214E037A239E020780028FAD021
:1023800036A200211C20FFF767FF94ED020A6A467F
:10239000252120EE080ABDEEC00A10EE100A00B298
:1023A00000E028E0FEF7FEFA03216A461C2020E048
:1023B0002DA200212420FFF74FFF94ED030AB5EE74
:1023C000C00AF1EE10FA11DBBCEEC00A1CA110EE3F
:1023D000100A82B2684600F053F96A4603211420BD
:1023E000FFF73AFF032122A24A2002E021A20321A3
:1023F0001420FFF731FFFFF7EDFE04B0BDEC028BB8
:1024000010BD00000000002054656D703A0000000F
:1024100048756D693A0000004448543131204572D6
:10242000726F722100000000436865636B20536582
:102430006E736F72000000004C75783A0000000067
:10244000257500002D2D2D0054656D706572617429
:10245000757265004E6F20446174610048756D6946
:102460006469747900000000496C6C756D000000AF
:102470006C7578004572726F720000001CB5002107
:1024800001918DF8050064200090022301AA7821B3
:102490000148FEF783FD1CBD240000201CB507A1E8
:1024A0000223096801918DF805006420009001AABB
:1024B00078210348FEF772FD1CBD000040000000BB
:1024C0002400002070477047094910B5081FFEF727
:1024D00089F958B10020064C083C2070FEF74CF9F1
:1024E00084ED030ABDE81040FFF7CCBE0120F2E7FF
:1024F000080000207047000030B593B030216846D6
:10250000FDF796FE14210CA8FDF792FE1E4800254B
:10251000016841F080510160006800F08050119026
:102520001A48016841F4804101600068022400F407
:102530008040119001200090000401908001CDE9BD
:102540000640082008904FF4A870CDE90904042043
:102550000B906846FEF7B6FF08B172B6FEE70CA90D
:102560000F2081E831004FF4A0500F904FF48050BD
:10257000109005210CA8FEF79BFE002801D072B632
:10258000FEE713B030BD000040380240007000404C
:102590000248016841F470010160704788ED00E075
:1025A0000148FFF74EBA0000C0000020F0B50268F5
:1025B000274B284D284E294F294C4FF0804C9842EC
:1025C00009D0604507D0A84205D0B04203D0B84238
:1025D00001D0A04204D122F0700E4A6842EA0E02F5
:1025E00098421BD0604519D0A84217D0B04215D0F0
:1025F000B84213D0A04211D01A4DA8420ED01A4DA5
:10260000A8420BD0194DA84208D0194DA84205D0B8
:10261000184DA84202D0184DA84203D122F44075AB
:10262000CA682A434D6922F080022A438D68C56238
:102630000D688562984201D0A04201D10969016309
:10264000016841F004010160012141610260F0BDB7
:10265000000001400004004000080040000C004061
:102660000004014000400140004401400048014096
:1026700000180040001C004000200040FEE7000061
:102680000FB4084B10B504A902AA039800F0EEF8A5
:10269000044602A9002000F080FC204610BC5DF832
:1026A00014FB00009B2F00080907090E002804DB1B
:1026B00000F1E02080F80014704700F00F0000F1F6
:1026C000E02080F8141D704702E008C8121F08C1FE
:1026D000002AFAD170477047002001E001C1121FA3
:1026E000002AFBD1704700002DE9FF5F82B0002176
:1026F000DDE90430020DDDF840B0034318D044F6A4
:102700001050A2F2FF3242431514119801281FD035
:10271000A5EB0B00401C5FEA000A4FF000064E4F8D
:10272000DFF83891B046504615D5CAF1000413E0E1
:10273000119801244AA3012801D16FEA0B010298E4
:10274000119AC0E90031C0E9024206B0BDE8F09F2D
:10275000CBF10000DFE704460021404A491842EB74
:102760000450CDE9001012E0E00707D032463B46A6
:1027700040464946FDF743FE8046894632463B4681
:1027800010461946FDF73BFE06460F466410002C26
:10279000EAD1DDE90401DDE90023BAF1000F06DA30
:1027A000FDF72DFE42464B46FDF729FE05E0FDF7FD
:1027B00098FE42464B46FDF794FE04460E46002224
:1027C000284BFDF715FF03D84FF0FF30014607E017
:1027D0000022254B20463146FDF76AFDFDF7F0FE4D
:1027E000102409E0002C0ADB0A220023FDF7E8FC94
:1027F000039B30321A55641E50EA0102F2D1641C68
:10280000039AC4F111031444119A012A03D001223E
:1028100008430DD10AE0084304D000204FF0110B0B
:10282000119072E7A3EB0B056D1E0DE05B4504DD17
:102830004FF0000205F1010504E003DA4FF0000259
:10284000A5F10105002AECD002981199C0E90231E6
:10285000C0E9004579E70000000014400000F03FA7
:10286000300000000000F0430000E03F2DE9FF4F82
:1028700095B09B468946064600250FE2252877D16C
:1028800000242746F84A0121059400E0044316F885
:10289000013F203B01FA03F01042F7D130782A289B
:1028A00011D06FF02F033078A0F13002092A16D82A
:1028B000059A44F0020402EB820203EB4202104448
:1028C000761C0590EFE759F8042B0592002A03DAED
:1028D000504244F40054059044F00204761C3078D1
:1028E0002E2816D116F8010F44F004042A280DD022
:1028F0006FF02F023078A0F13003092B09D807EBD5
:10290000870302EB4303C718761CF3E759F8047BEF
:10291000761C30786C280FD006DC4C2817D068283D
:102920000DD06A2814D104E0742810D07A280FD171
:102930000DE044F400140AE044F4801401E044F48F
:1029400040147278824202D104F58014761C761C01
:10295000307866280BD013DC582877D009DC0028A3
:1029600075D04528F6D04628F4D047281AD19DE1E5
:1029700018E0632835D0642879D0652812D195E114
:10298000702873D008DC6728F1D069286FD06E28D2
:102990000DD06F2806D1B5E073282CD0752875D0DE
:1029A000782874D05A46179990476D1C75E1C4F386
:1029B0000250022809D003280DD0D9F800100428AD
:1029C0000DD00D6009F1040967E1D9F80010EA178C
:1029D000C1E90052F6E7D9F800100D80F2E70D705A
:1029E000F0E719F8041B8DF8001000208DF80100A5
:1029F000EA46012003E059F804AB4FF0FF306107CD
:102A00004FF0000102D40DE008F101018846B942FF
:102A10000FDA8045F8DB1AF808100029F4D108E035
:102A200008F1010188468142FADB1AF808100029F2
:102A3000F6D105985B46A0EB080721463846179A61
:102A400000F094FA284400EB080507E04DE029E186
:102A50000DE01AF8010B5A4617999047B8F1010892
:102A6000F7D25B4621463846179A13E142E00A2224
:102A70000092C4F302524FF0000A022A08D059F81B
:102A800004CB032A4FEAEC710AD00DE029E02AE0DA
:102A900009F1070121F00702F2E802C1914609E0BD
:102AA0000FFA8CFC4FEAEC71042A03D14FFA8CFC2C
:102AB0004FEAEC71002907DA0A460021DCF1000C2C
:102AC00061EB02012D2202E0220504D52B228DF8B4
:102AD0000420012203E0E20701D02022F7E790461C
:102AE00059E00A2102E010220DE010214FF0000A07
:102AF00000910BE010224FF0000A44F00404082774
:102B0000009203E008224FF0000A0092C4F3025240
:102B1000022A05D059F804CB0021032A08D009E085
:102B200009F1070121F00702F2E802C1914605E030
:102B30001FFA8CFC042A01D10CF0FF0C4FF00008A6
:102B4000220728D5702806D0009B83F0100353EA93
:102B50000A0305D00EE040228DF80420012208E08F
:102B60005CEA010206D030228DF804208DF80500C1
:102B700002229046009B83F0080353EA0A030AD11D
:102B80005CEA010201D1620705D530228DF80420EC
:102B90004FF001087F1E582804D034A003900EA8DF
:102BA00002900DE036A0F9E753466046009AFDF723
:102BB00007FB84460398825C0298401E02900270D4
:102BC0005CEA0100F0D1029806A9081A00F1200A77
:102BD000600702D524F4803400E00127574502DD68
:102BE000A7EB0A0000E0002000EB0A010090059826
:102BF0004144401A0590E00306D45B462146179AEB
:102C0000059800F0B3F90544002706E001A85A46EC
:102C1000C05D179990476D1C7F1C4745F6DBE003AC
:102C20000CD55B462146179A059800F09FF905449C
:102C300004E030205A46179990476D1C0099481EB1
:102C400000900029F5DC08E0029802995A460078C5
:102C5000491C0291179990476D1CBAF10001AAF125
:102C6000010AF1DC65E1000009280100303132334E
:102C700034353637383961626364656600000000B8
:102C800030313233343536373839414243444546A2
:102C90000000000000F058F90544761C3078002848
:102CA0007FF4ECAD19B02846BDE8F08F620700D480
:102CB000062709F1070222F0070CFCE80223E1468F
:102CC00003F000485FEA080C02D00FF2702C0DE010
:102CD0005FEA045C02D50FF2682C07E05FEAC47C6F
:102CE00002D00FF2602C01E0AFF2700C4FF0FF3811
:102CF00023F00043CDF850C065280CD006DC4528F1
:102D000009D046281DD047283DD13DE0662818D07F
:102D100067287ED138E00021112F01DB112000E06F
:102D2000781CCDE9000106A90EA8FFF7DDFCDDE95E
:102D30000F010E9A03910021009207F1010A0491FC
:102D40004DE04FF000400097CDE9011006A90EA814
:102D5000FFF7CAFCDDE90F0203920E9B11990022D6
:102D6000DDF80CA00093049211B9791C00EB010A64
:102D7000B7EB0A0004D4C0F1FF3007F1010A049058
:102D8000AAEB0700019044E0012F00DA012700219F
:102D9000112F01DD112000E03846CDE9000106A920
:102DA0000EA8FFF7A1FCDDE90F010E9A03910021A7
:102DB00004910092BA4621070CD40399514500DAD8
:102DC0008A46BAF1010F05DD009AAAF10101515CB2
:102DD000302908D0B84202DA10F1040F06DA0121D6
:102DE000CDE9011015E0AAF10101E9E7002805DCB1
:102DF000049901440491AAEB000102E0411C5145F1
:102E000000DD8A460499401A401C01904FF00040B2
:102E10000290200704D40198504501DBCDF80480CE
:102E200000208DF84F0002980DF14F07B0F1004FD0
:102E300025D02B200E9002984FF0020800280CDAC3
:102E4000404202902D200E9007E00A210298FDF7E3
:102E5000FAF93031029007F8011DB8F10001A8F12C
:102E60000108F2DC02980028EFD1791E0E98087054
:102E7000307800F0200040F0450007F8020D12A85D
:102E8000C01B00F107081498007800B1012000EB86
:102E90000A01019801EBE07105984144401A401E77
:102EA0000590E00306D45B462146179A059800F08A
:102EB0005DF805441498007818B15A461799904760
:102EC0006D1CE00324D55B462146179A059800F057
:102ED0004DF805441CE00498002807DBDDE90301F8
:102EE000884203DD0098405C179901E01799302073
:102EF0005A469047049805F10105401C049001983A
:102F0000401E019004D12E205A46179990476D1CFF
:102F1000BAF10001AAF1010ADDDC05E017F8010BA6
:102F20005A46179990476D1CB8F10001A8F10108A5
:102F3000F4DC5B462146179A0598ABE62D000000AD
:102F40002B000000200000002DE9F0410446002580
:102F50001E461746880404D405E039462020B047B1
:102F60006D1C641EF9D52846BDE8F0812DE9F041BD
:102F7000044600251E469046C80301D5302700E0D0
:102F80002027880404D505E041463846B0476D1C2B
:102F9000641EF9D52846BDE8F0810A68531C0B6011
:102FA000107070474FF6FA71884200D908460449FC
:102FB00000220B685A6209684A6A8242FCD3704751
:102FC00078000020FEF7BCF8FFF796FAFFF712F83A
:102FD000FFF758F8FFF776F8FFF7A2F8FFF798F831
:102FE0001AA201210820FFF737F91CA203210820AB
:102FF000FFF732F91DA205211420FFF72DF9FFF785
:10300000E9F8FDF78FFBFFF783F81CA205211420D8
:10301000FFF722F9FFF7DEF84FF4FA70FDF7E8FC4E
:103020000026194D4FF4FA67FFF74EFA5FF00004DF
:10303000FEF7C0FFA87810B1AE70FFF723F90120AA
:10304000FDF7D6FC641CBC42F2D3EDE74A696E671B
:103050005361692050726F6A6563740053544D3335
:1030600032463430375A475436000000496E69748E
:1030700069616C697A696E672E2E2E0053746172D5
:1030800074696E672E2E2E000000002000000000E4
:10309000000000005F000000000700070000147F30
:1030A000147F1400242A7F2A12002313086462006C
:1030B000364955225000000503000000001C224143
:1030C00000000041221C0000082A1C2A08000808F1
:1030D0003E080800005030000000080808080800FA
:1030E0000060600000002010080402003E514945C5
:1030F0003E0000427F4000004261514946002141AC
:10310000454B31001814127F100027454545390002
:103110003C4A4949300001710905030036494949D3
:103120003600064949291E000036360000000056C8
:103130003600000008142241000014141414140076
:103140004122140800000201510906003249794168
:103150003E007E1111117E007F49494936003E41F3
:10316000414122007F4141221C007F4949494100E1
:103170007F09090101003E41415132007F080808E2
:103180007F0000417F4100002040413F01007F0857
:10319000142241007F40404040007F0204027F0033
:1031A0007F0408107F003E4141413E007F0909092C
:1031B00006003E4151215E007F091929460046491B
:1031C0004949310001017F0101003F4040403F007B
:1031D0001F2040201F007F2018207F006314081448
:1031E0006300030478040300615149454300000073
:1031F0007F41410002040810200041417F0000008F
:10320000040201020400404040404000000102046A
:1032100000002054545478007F4844443800384417
:1032200044442000384444487F0038545454180023
:10323000087E09010200081454543C007F0804046D
:10324000780000447D4000002040443D00007F1095
:103250002844000000417F4000007C0418047800EE
:103260007C08040478003844444438007C14141466
:103270000800081414187C007C0804040800485452
:1032800054542000043F444020003C4040207C0037
:103290001C2040201C003C4030403C0044281028AA
:1032A00044000C5050503C004464544C440000080E
:1032B0003641000000007F00000000413608000099
:1032C00008082A1C0800000000000000000001029D
:1032D00003040607080900000000010203040000BF
:1032E000003300080000002024000000C826000869
:1032F0002433000824000020E4080000D826000839
:1033000000000100000000000000000000000000BC
:10331000000000000100000010000000000000009C
:043320000024F40091
:040000050800018965
:00000001FF
